{
  "contractName": "Voting",
  "abi": [
    {
      "inputs": [],
      "stateMutability": "nonpayable",
      "type": "constructor"
    },
    {
      "anonymous": false,
      "inputs": [
        {
          "indexed": false,
          "internalType": "uint256",
          "name": "candidateId",
          "type": "uint256"
        },
        {
          "indexed": false,
          "internalType": "string",
          "name": "name",
          "type": "string"
        }
      ],
      "name": "CandidateAdded",
      "type": "event"
    },
    {
      "anonymous": false,
      "inputs": [
        {
          "indexed": false,
          "internalType": "address",
          "name": "userAddress",
          "type": "address"
        }
      ],
      "name": "UserRegistered",
      "type": "event"
    },
    {
      "anonymous": false,
      "inputs": [
        {
          "indexed": false,
          "internalType": "address",
          "name": "voter",
          "type": "address"
        },
        {
          "indexed": false,
          "internalType": "uint256",
          "name": "candidateId",
          "type": "uint256"
        }
      ],
      "name": "VoteCast",
      "type": "event"
    },
    {
      "inputs": [],
      "name": "admin",
      "outputs": [
        {
          "internalType": "address",
          "name": "",
          "type": "address"
        }
      ],
      "stateMutability": "view",
      "type": "function",
      "constant": true
    },
    {
      "inputs": [],
      "name": "candidateCount",
      "outputs": [
        {
          "internalType": "uint256",
          "name": "",
          "type": "uint256"
        }
      ],
      "stateMutability": "view",
      "type": "function",
      "constant": true
    },
    {
      "inputs": [
        {
          "internalType": "uint256",
          "name": "",
          "type": "uint256"
        }
      ],
      "name": "candidates",
      "outputs": [
        {
          "internalType": "uint256",
          "name": "id",
          "type": "uint256"
        },
        {
          "internalType": "string",
          "name": "name",
          "type": "string"
        },
        {
          "internalType": "string",
          "name": "description",
          "type": "string"
        },
        {
          "internalType": "uint256",
          "name": "voteCount",
          "type": "uint256"
        }
      ],
      "stateMutability": "view",
      "type": "function",
      "constant": true
    },
    {
      "inputs": [
        {
          "internalType": "address",
          "name": "",
          "type": "address"
        }
      ],
      "name": "users",
      "outputs": [
        {
          "internalType": "bool",
          "name": "exists",
          "type": "bool"
        },
        {
          "internalType": "bool",
          "name": "hasVoted",
          "type": "bool"
        }
      ],
      "stateMutability": "view",
      "type": "function",
      "constant": true
    },
    {
      "inputs": [],
      "name": "registerUser",
      "outputs": [],
      "stateMutability": "nonpayable",
      "type": "function"
    },
    {
      "inputs": [
        {
          "internalType": "string",
          "name": "_name",
          "type": "string"
        },
        {
          "internalType": "string",
          "name": "_description",
          "type": "string"
        }
      ],
      "name": "addCandidate",
      "outputs": [],
      "stateMutability": "nonpayable",
      "type": "function"
    },
    {
      "inputs": [
        {
          "internalType": "uint256",
          "name": "_candidateId",
          "type": "uint256"
        }
      ],
      "name": "vote",
      "outputs": [],
      "stateMutability": "nonpayable",
      "type": "function"
    },
    {
      "inputs": [],
      "name": "getCandidates",
      "outputs": [
        {
          "components": [
            {
              "internalType": "uint256",
              "name": "id",
              "type": "uint256"
            },
            {
              "internalType": "string",
              "name": "name",
              "type": "string"
            },
            {
              "internalType": "string",
              "name": "description",
              "type": "string"
            },
            {
              "internalType": "uint256",
              "name": "voteCount",
              "type": "uint256"
            }
          ],
          "internalType": "struct Voting.Candidate[]",
          "name": "",
          "type": "tuple[]"
        }
      ],
      "stateMutability": "view",
      "type": "function",
      "constant": true
    },
    {
      "inputs": [
        {
          "internalType": "address",
          "name": "_user",
          "type": "address"
        }
      ],
      "name": "hasUserVoted",
      "outputs": [
        {
          "internalType": "bool",
          "name": "",
          "type": "bool"
        }
      ],
      "stateMutability": "view",
      "type": "function",
      "constant": true
    }
  ],
  "bytecode": "0x608060405234801561001057600080fd5b5033600360006101000a81548173ffffffffffffffffffffffffffffffffffffffff021916908373ffffffffffffffffffffffffffffffffffffffff16021790555061152e806100616000396000f3fe608060405234801561001057600080fd5b50600436106100935760003560e01c80634d3820eb116100665780634d3820eb146101215780637fabe80a1461012b578063a87430ba1461015b578063a9a981a31461018c578063f851a440146101aa57610093565b80630121b93f1461009857806306a49fce146100b457806326541b56146100d25780633477ee2e146100ee575b600080fd5b6100b260048036038101906100ad9190610d14565b6101c8565b005b6100bc6103f8565b6040516100c99190611088565b60405180910390f35b6100ec60048036038101906100e79190610ca8565b61064b565b005b61010860048036038101906101039190610d14565b6107bc565b60405161011894939291906111d9565b60405180910390f35b6101296108fc565b005b61014560048036038101906101409190610c7f565b610a60565b60405161015291906110aa565b60405180910390f35b61017560048036038101906101709190610c7f565b610ab8565b6040516101839291906110c5565b60405180910390f35b610194610af6565b6040516101a1919061118e565b60405180910390f35b6101b2610afc565b6040516101bf9190611044565b60405180910390f35b6000803373ffffffffffffffffffffffffffffffffffffffff1673ffffffffffffffffffffffffffffffffffffffff16815260200190815260200160002060000160009054906101000a900460ff16610256576040517f08c379a000000000000000000000000000000000000000000000000000000000815260040161024d906110ee565b60405180910390fd5b6000803373ffffffffffffffffffffffffffffffffffffffff1673ffffffffffffffffffffffffffffffffffffffff16815260200190815260200160002060000160019054906101000a900460ff16156102e5576040517f08c379a00000000000000000000000000000000000000000000000000000000081526004016102dc9061110e565b60405180910390fd5b6000811180156102f757506002548111155b610336576040517f08c379a000000000000000000000000000000000000000000000000000000000815260040161032d9061112e565b60405180910390fd5b60016000803373ffffffffffffffffffffffffffffffffffffffff1673ffffffffffffffffffffffffffffffffffffffff16815260200190815260200160002060000160016101000a81548160ff0219169083151502179055506001600082815260200190815260200160002060030160008154809291906103b7906113e3565b91905055507fa36cc2bebb74db33e9f88110a07ef56e1b31b24b4c4f51b54b1664266e29f45b33826040516103ed92919061105f565b60405180910390a150565b6060600060025467ffffffffffffffff81111561043e577f4e487b7100000000000000000000000000000000000000000000000000000000600052604160045260246000fd5b60405190808252806020026020018201604052801561047757816020015b610464610b22565b81526020019060019003908161045c5790505b5090506000600190505b60025481116106435760016000828152602001908152602001600020604051806080016040529081600082015481526020016001820180546104c2906113b1565b80601f01602080910402602001604051908101604052809291908181526020018280546104ee906113b1565b801561053b5780601f106105105761010080835404028352916020019161053b565b820191906000526020600020905b81548152906001019060200180831161051e57829003601f168201915b50505050508152602001600282018054610554906113b1565b80601f0160208091040260200160405190810160405280929190818152602001828054610580906113b1565b80156105cd5780601f106105a2576101008083540402835291602001916105cd565b820191906000526020600020905b8154815290600101906020018083116105b057829003601f168201915b50505050508152602001600382015481525050826001836105ee91906112f3565b81518110610625577f4e487b7100000000000000000000000000000000000000000000000000000000600052603260045260246000fd5b6020026020010181905250808061063b906113e3565b915050610481565b508091505090565b600360009054906101000a900473ffffffffffffffffffffffffffffffffffffffff1673ffffffffffffffffffffffffffffffffffffffff163373ffffffffffffffffffffffffffffffffffffffff16146106db576040517f08c379a00000000000000000000000000000000000000000000000000000000081526004016106d29061116e565b60405180910390fd5b600260008154809291906106ee906113e3565b9190505550604051806080016040528060025481526020018381526020018281526020016000815250600160006002548152602001908152602001600020600082015181600001556020820151816001019080519060200190610752929190610b4a565b50604082015181600201908051906020019061076f929190610b4a565b50606082015181600301559050507fe83b2a43e7e82d975c8a0a6d2f045153c869e111136a34d1889ab7b598e396a3600254836040516107b09291906111a9565b60405180910390a15050565b60016020528060005260406000206000915090508060000154908060010180546107e5906113b1565b80601f0160208091040260200160405190810160405280929190818152602001828054610811906113b1565b801561085e5780601f106108335761010080835404028352916020019161085e565b820191906000526020600020905b81548152906001019060200180831161084157829003601f168201915b505050505090806002018054610873906113b1565b80601f016020809104026020016040519081016040528092919081815260200182805461089f906113b1565b80156108ec5780601f106108c1576101008083540402835291602001916108ec565b820191906000526020600020905b8154815290600101906020018083116108cf57829003601f168201915b5050505050908060030154905084565b6000803373ffffffffffffffffffffffffffffffffffffffff1673ffffffffffffffffffffffffffffffffffffffff16815260200190815260200160002060000160009054906101000a900460ff161561098b576040517f08c379a00000000000000000000000000000000000000000000000000000000081526004016109829061114e565b60405180910390fd5b6040518060400160405280600115158152602001600015158152506000803373ffffffffffffffffffffffffffffffffffffffff1673ffffffffffffffffffffffffffffffffffffffff16815260200190815260200160002060008201518160000160006101000a81548160ff02191690831515021790555060208201518160000160016101000a81548160ff0219169083151502179055509050507f54db7a5cb4735e1aac1f53db512d3390390bb6637bd30ad4bf9fc98667d9b9b933604051610a569190611044565b60405180910390a1565b60008060008373ffffffffffffffffffffffffffffffffffffffff1673ffffffffffffffffffffffffffffffffffffffff16815260200190815260200160002060000160019054906101000a900460ff169050919050565b60006020528060005260406000206000915090508060000160009054906101000a900460ff16908060000160019054906101000a900460ff16905082565b60025481565b600360009054906101000a900473ffffffffffffffffffffffffffffffffffffffff1681565b6040518060800160405280600081526020016060815260200160608152602001600081525090565b828054610b56906113b1565b90600052602060002090601f016020900481019282610b785760008555610bbf565b82601f10610b9157805160ff1916838001178555610bbf565b82800160010185558215610bbf579182015b82811115610bbe578251825591602001919060010190610ba3565b5b509050610bcc9190610bd0565b5090565b5b80821115610be9576000816000905550600101610bd1565b5090565b6000610c00610bfb8461125d565b61122c565b905082815260208101848484011115610c1857600080fd5b610c2384828561136f565b509392505050565b600081359050610c3a816114ca565b92915050565b600082601f830112610c5157600080fd5b8135610c61848260208601610bed565b91505092915050565b600081359050610c79816114e1565b92915050565b600060208284031215610c9157600080fd5b6000610c9f84828501610c2b565b91505092915050565b60008060408385031215610cbb57600080fd5b600083013567ffffffffffffffff811115610cd557600080fd5b610ce185828601610c40565b925050602083013567ffffffffffffffff811115610cfe57600080fd5b610d0a85828601610c40565b9150509250929050565b600060208284031215610d2657600080fd5b6000610d3484828501610c6a565b91505092915050565b6000610d498383610fbc565b905092915050565b610d5a81611327565b82525050565b6000610d6b8261129d565b610d7581856112c0565b935083602082028501610d878561128d565b8060005b85811015610dc35784840389528151610da48582610d3d565b9450610daf836112b3565b925060208a01995050600181019050610d8b565b50829750879550505050505092915050565b610dde81611339565b82525050565b6000610def826112a8565b610df981856112d1565b9350610e0981856020860161137e565b610e12816114b9565b840191505092915050565b6000610e28826112a8565b610e3281856112e2565b9350610e4281856020860161137e565b610e4b816114b9565b840191505092915050565b6000610e636013836112e2565b91507f55736572206e6f742072656769737465726564000000000000000000000000006000830152602082019050919050565b6000610ea36016836112e2565b91507f557365722068617320616c726561647920766f746564000000000000000000006000830152602082019050919050565b6000610ee36011836112e2565b91507f496e76616c69642063616e6469646174650000000000000000000000000000006000830152602082019050919050565b6000610f236017836112e2565b91507f5573657220616c726561647920726567697374657265640000000000000000006000830152602082019050919050565b6000610f636022836112e2565b91507f4f6e6c792061646d696e2063616e20706572666f726d2074686973206163746960008301527f6f6e0000000000000000000000000000000000000000000000000000000000006020830152604082019050919050565b6000608083016000830151610fd46000860182611026565b5060208301518482036020860152610fec8282610de4565b915050604083015184820360408601526110068282610de4565b915050606083015161101b6060860182611026565b508091505092915050565b61102f81611365565b82525050565b61103e81611365565b82525050565b60006020820190506110596000830184610d51565b92915050565b60006040820190506110746000830185610d51565b6110816020830184611035565b9392505050565b600060208201905081810360008301526110a28184610d60565b905092915050565b60006020820190506110bf6000830184610dd5565b92915050565b60006040820190506110da6000830185610dd5565b6110e76020830184610dd5565b9392505050565b6000602082019050818103600083015261110781610e56565b9050919050565b6000602082019050818103600083015261112781610e96565b9050919050565b6000602082019050818103600083015261114781610ed6565b9050919050565b6000602082019050818103600083015261116781610f16565b9050919050565b6000602082019050818103600083015261118781610f56565b9050919050565b60006020820190506111a36000830184611035565b92915050565b60006040820190506111be6000830185611035565b81810360208301526111d08184610e1d565b90509392505050565b60006080820190506111ee6000830187611035565b81810360208301526112008186610e1d565b905081810360408301526112148185610e1d565b90506112236060830184611035565b95945050505050565b6000604051905081810181811067ffffffffffffffff821117156112535761125261148a565b5b8060405250919050565b600067ffffffffffffffff8211156112785761127761148a565b5b601f19601f8301169050602081019050919050565b6000819050602082019050919050565b600081519050919050565b600081519050919050565b6000602082019050919050565b600082825260208201905092915050565b600082825260208201905092915050565b600082825260208201905092915050565b60006112fe82611365565b915061130983611365565b92508282101561131c5761131b61142c565b5b828203905092915050565b600061133282611345565b9050919050565b60008115159050919050565b600073ffffffffffffffffffffffffffffffffffffffff82169050919050565b6000819050919050565b82818337600083830152505050565b60005b8381101561139c578082015181840152602081019050611381565b838111156113ab576000848401525b50505050565b600060028204905060018216806113c957607f821691505b602082108114156113dd576113dc61145b565b5b50919050565b60006113ee82611365565b91507fffffffffffffffffffffffffffffffffffffffffffffffffffffffffffffffff8214156114215761142061142c565b5b600182019050919050565b7f4e487b7100000000000000000000000000000000000000000000000000000000600052601160045260246000fd5b7f4e487b7100000000000000000000000000000000000000000000000000000000600052602260045260246000fd5b7f4e487b7100000000000000000000000000000000000000000000000000000000600052604160045260246000fd5b6000601f19601f8301169050919050565b6114d381611327565b81146114de57600080fd5b50565b6114ea81611365565b81146114f557600080fd5b5056fea2646970667358221220c5ec329f4c7ba54b2a8fffc74dd2b86936afbfeaf592bccc6774d4b9a61ce43f64736f6c63430008000033",
  "immutableReferences": {},
  "source": "// SPDX-License-Identifier: MIT\r\npragma solidity ^0.8.0;\r\n\r\ncontract Voting {\r\n    struct User {\r\n        bool exists;\r\n        bool hasVoted;\r\n    }\r\n\r\n    struct Candidate {\r\n        uint id;\r\n        string name;\r\n        string description;\r\n        uint voteCount;\r\n    }\r\n\r\n    mapping(address => User) public users;\r\n    mapping(uint => Candidate) public candidates;\r\n    uint public candidateCount;\r\n\r\n    address public admin;\r\n\r\n    event UserRegistered(address userAddress);\r\n    event VoteCast(address voter, uint candidateId);\r\n    event CandidateAdded(uint candidateId, string name);\r\n\r\n    constructor() {\r\n        admin = msg.sender;\r\n    }\r\n\r\n    modifier onlyAdmin() {\r\n        require(msg.sender == admin, \"Only admin can perform this action\");\r\n        _;\r\n    }\r\n\r\n    function registerUser() public {\r\n        require(!users[msg.sender].exists, \"User already registered\");\r\n        users[msg.sender] = User(true, false);\r\n        emit UserRegistered(msg.sender);\r\n    }\r\n\r\n    function addCandidate(string memory _name, string memory _description) public onlyAdmin {\r\n        candidateCount++;\r\n        candidates[candidateCount] = Candidate(candidateCount, _name, _description, 0);\r\n        emit CandidateAdded(candidateCount, _name);\r\n    }\r\n\r\n    function vote(uint _candidateId) public {\r\n        require(users[msg.sender].exists, \"User not registered\");\r\n        require(!users[msg.sender].hasVoted, \"User has already voted\");\r\n        require(_candidateId > 0 && _candidateId <= candidateCount, \"Invalid candidate\");\r\n\r\n        users[msg.sender].hasVoted = true;\r\n        candidates[_candidateId].voteCount++;\r\n\r\n        emit VoteCast(msg.sender, _candidateId);\r\n    }\r\n\r\n    function getCandidates() public view returns (Candidate[] memory) {\r\n        Candidate[] memory allCandidates = new Candidate[](candidateCount);\r\n        for (uint i = 1; i <= candidateCount; i++) {\r\n            allCandidates[i-1] = candidates[i];\r\n        }\r\n        return allCandidates;\r\n    }\r\n\r\n    function hasUserVoted(address _user) public view returns (bool) {\r\n        return users[_user].hasVoted;\r\n    }\r\n}",
  "sourcePath": "C:\\Users\\User\\Music\\voting-app1\\contracts\\Voting.sol",
  "compiler": {
    "name": "solc",
    "version": "0.8.0+commit.c7dfd78e.Emscripten.clang"
  },
  "schemaVersion": "3.4.16",
  "updatedAt": "2024-07-05T14:03:02.495Z",
  "networkType": "ethereum",
  "devdoc": {
    "kind": "dev",
    "methods": {},
    "version": 1
  },
  "userdoc": {
    "kind": "user",
    "methods": {},
    "version": 1
  }
}